{
  "contractName": "BanqAudit",
  "abi": [
    {
      "inputs": [],
      "payable": false,
      "stateMutability": "nonpayable",
      "type": "constructor"
    },
    {
      "anonymous": false,
      "inputs": [
        {
          "indexed": false,
          "internalType": "bytes32",
          "name": "_contracthash",
          "type": "bytes32"
        },
        {
          "indexed": false,
          "internalType": "uint256",
          "name": "_rewardtotal",
          "type": "uint256"
        },
        {
          "indexed": false,
          "internalType": "address",
          "name": "owner",
          "type": "address"
        }
      ],
      "name": "AuditRequest",
      "type": "event"
    },
    {
      "anonymous": false,
      "inputs": [
        {
          "indexed": false,
          "internalType": "bytes32",
          "name": "_contracthash",
          "type": "bytes32"
        },
        {
          "indexed": false,
          "internalType": "uint256",
          "name": "_amountleft",
          "type": "uint256"
        }
      ],
      "name": "ClosedAudit",
      "type": "event"
    },
    {
      "anonymous": false,
      "inputs": [
        {
          "indexed": false,
          "internalType": "bytes32",
          "name": "_contracthash",
          "type": "bytes32"
        },
        {
          "indexed": false,
          "internalType": "uint256",
          "name": "_reportid",
          "type": "uint256"
        },
        {
          "indexed": false,
          "internalType": "uint256",
          "name": "_payout",
          "type": "uint256"
        }
      ],
      "name": "ClosedReport",
      "type": "event"
    },
    {
      "anonymous": false,
      "inputs": [
        {
          "indexed": false,
          "internalType": "bytes32",
          "name": "_contracthash",
          "type": "bytes32"
        },
        {
          "indexed": false,
          "internalType": "bytes32",
          "name": "_reporthash",
          "type": "bytes32"
        },
        {
          "indexed": false,
          "internalType": "uint256",
          "name": "_reportid",
          "type": "uint256"
        },
        {
          "indexed": false,
          "internalType": "uint256",
          "name": "_risktotal",
          "type": "uint256"
        },
        {
          "indexed": false,
          "internalType": "address",
          "name": "owner",
          "type": "address"
        }
      ],
      "name": "ReportSubmit",
      "type": "event"
    },
    {
      "anonymous": false,
      "inputs": [
        {
          "indexed": false,
          "internalType": "bytes32",
          "name": "_contracthash",
          "type": "bytes32"
        },
        {
          "indexed": false,
          "internalType": "uint256",
          "name": "_reportid",
          "type": "uint256"
        },
        {
          "indexed": false,
          "internalType": "uint256",
          "name": "_amountreview",
          "type": "uint256"
        },
        {
          "indexed": false,
          "internalType": "uint256",
          "name": "_points",
          "type": "uint256"
        },
        {
          "indexed": false,
          "internalType": "bool",
          "name": "received",
          "type": "bool"
        }
      ],
      "name": "VerifiedReport",
      "type": "event"
    },
    {
      "payable": true,
      "stateMutability": "payable",
      "type": "fallback"
    },
    {
      "constant": true,
      "inputs": [
        {
          "internalType": "bytes32",
          "name": "",
          "type": "bytes32"
        }
      ],
      "name": "audit_index",
      "outputs": [
        {
          "internalType": "uint256",
          "name": "",
          "type": "uint256"
        }
      ],
      "payable": false,
      "stateMutability": "view",
      "type": "function"
    },
    {
      "constant": true,
      "inputs": [
        {
          "internalType": "bytes32",
          "name": "",
          "type": "bytes32"
        }
      ],
      "name": "audits",
      "outputs": [
        {
          "internalType": "address",
          "name": "owner",
          "type": "address"
        },
        {
          "internalType": "string",
          "name": "link",
          "type": "string"
        },
        {
          "internalType": "uint256",
          "name": "balance",
          "type": "uint256"
        },
        {
          "internalType": "uint256",
          "name": "reportIndex",
          "type": "uint256"
        },
        {
          "internalType": "bool",
          "name": "closed",
          "type": "bool"
        }
      ],
      "payable": false,
      "stateMutability": "view",
      "type": "function"
    },
    {
      "constant": true,
      "inputs": [],
      "name": "indexPending",
      "outputs": [
        {
          "internalType": "uint256",
          "name": "",
          "type": "uint256"
        }
      ],
      "payable": false,
      "stateMutability": "view",
      "type": "function"
    },
    {
      "constant": true,
      "inputs": [],
      "name": "indexReports",
      "outputs": [
        {
          "internalType": "uint256",
          "name": "",
          "type": "uint256"
        }
      ],
      "payable": false,
      "stateMutability": "view",
      "type": "function"
    },
    {
      "constant": true,
      "inputs": [],
      "name": "indexTotal",
      "outputs": [
        {
          "internalType": "uint256",
          "name": "",
          "type": "uint256"
        }
      ],
      "payable": false,
      "stateMutability": "view",
      "type": "function"
    },
    {
      "constant": true,
      "inputs": [
        {
          "internalType": "uint256",
          "name": "",
          "type": "uint256"
        }
      ],
      "name": "index_audit",
      "outputs": [
        {
          "internalType": "bytes32",
          "name": "",
          "type": "bytes32"
        }
      ],
      "payable": false,
      "stateMutability": "view",
      "type": "function"
    },
    {
      "constant": true,
      "inputs": [
        {
          "internalType": "uint256",
          "name": "",
          "type": "uint256"
        }
      ],
      "name": "pending_total",
      "outputs": [
        {
          "internalType": "uint256",
          "name": "",
          "type": "uint256"
        }
      ],
      "payable": false,
      "stateMutability": "view",
      "type": "function"
    },
    {
      "constant": true,
      "inputs": [
        {
          "internalType": "address",
          "name": "",
          "type": "address"
        }
      ],
      "name": "reliability_auditee",
      "outputs": [
        {
          "internalType": "uint256",
          "name": "",
          "type": "uint256"
        }
      ],
      "payable": false,
      "stateMutability": "view",
      "type": "function"
    },
    {
      "constant": true,
      "inputs": [
        {
          "internalType": "address",
          "name": "",
          "type": "address"
        }
      ],
      "name": "reliability_auditor",
      "outputs": [
        {
          "internalType": "uint256",
          "name": "",
          "type": "uint256"
        }
      ],
      "payable": false,
      "stateMutability": "view",
      "type": "function"
    },
    {
      "constant": true,
      "inputs": [
        {
          "internalType": "uint256",
          "name": "",
          "type": "uint256"
        }
      ],
      "name": "reports",
      "outputs": [
        {
          "internalType": "address",
          "name": "owner",
          "type": "address"
        },
        {
          "internalType": "bytes32",
          "name": "auditid",
          "type": "bytes32"
        },
        {
          "internalType": "bytes32",
          "name": "reportid",
          "type": "bytes32"
        },
        {
          "internalType": "string",
          "name": "link",
          "type": "string"
        },
        {
          "internalType": "uint256",
          "name": "totalrisk",
          "type": "uint256"
        },
        {
          "internalType": "uint256",
          "name": "reportstatus",
          "type": "uint256"
        },
        {
          "internalType": "uint256",
          "name": "payout",
          "type": "uint256"
        }
      ],
      "payable": false,
      "stateMutability": "view",
      "type": "function"
    },
    {
      "constant": true,
      "inputs": [],
      "name": "totalPendingPayout",
      "outputs": [
        {
          "internalType": "uint256",
          "name": "",
          "type": "uint256"
        }
      ],
      "payable": false,
      "stateMutability": "view",
      "type": "function"
    },
    {
      "constant": true,
      "inputs": [],
      "name": "totalReliability_auditee",
      "outputs": [
        {
          "internalType": "uint256",
          "name": "",
          "type": "uint256"
        }
      ],
      "payable": false,
      "stateMutability": "view",
      "type": "function"
    },
    {
      "constant": true,
      "inputs": [],
      "name": "totalReliability_auditor",
      "outputs": [
        {
          "internalType": "uint256",
          "name": "",
          "type": "uint256"
        }
      ],
      "payable": false,
      "stateMutability": "view",
      "type": "function"
    },
    {
      "constant": true,
      "inputs": [],
      "name": "totalRewardAvailable",
      "outputs": [
        {
          "internalType": "uint256",
          "name": "",
          "type": "uint256"
        }
      ],
      "payable": false,
      "stateMutability": "view",
      "type": "function"
    },
    {
      "constant": true,
      "inputs": [
        {
          "internalType": "uint256",
          "name": "",
          "type": "uint256"
        }
      ],
      "name": "total_pending",
      "outputs": [
        {
          "internalType": "uint256",
          "name": "",
          "type": "uint256"
        }
      ],
      "payable": false,
      "stateMutability": "view",
      "type": "function"
    },
    {
      "constant": false,
      "inputs": [
        {
          "internalType": "address payable",
          "name": "_dev",
          "type": "address"
        }
      ],
      "name": "changeDev",
      "outputs": [
        {
          "internalType": "bool",
          "name": "",
          "type": "bool"
        }
      ],
      "payable": false,
      "stateMutability": "nonpayable",
      "type": "function"
    },
    {
      "constant": true,
      "inputs": [
        {
          "internalType": "bytes32",
          "name": "_contracthash",
          "type": "bytes32"
        }
      ],
      "name": "getAuditData",
      "outputs": [
        {
          "internalType": "uint256[4]",
          "name": "",
          "type": "uint256[4]"
        }
      ],
      "payable": false,
      "stateMutability": "view",
      "type": "function"
    },
    {
      "constant": true,
      "inputs": [
        {
          "internalType": "bytes32",
          "name": "_contracthash",
          "type": "bytes32"
        }
      ],
      "name": "getAuditReports",
      "outputs": [
        {
          "internalType": "uint256[]",
          "name": "",
          "type": "uint256[]"
        }
      ],
      "payable": false,
      "stateMutability": "view",
      "type": "function"
    },
    {
      "constant": true,
      "inputs": [
        {
          "internalType": "bytes32",
          "name": "_contracthash",
          "type": "bytes32"
        }
      ],
      "name": "getAuditValidators",
      "outputs": [
        {
          "internalType": "address[]",
          "name": "",
          "type": "address[]"
        }
      ],
      "payable": false,
      "stateMutability": "view",
      "type": "function"
    },
    {
      "constant": true,
      "inputs": [
        {
          "internalType": "uint256",
          "name": "_indexReports",
          "type": "uint256"
        },
        {
          "internalType": "uint256",
          "name": "id",
          "type": "uint256"
        }
      ],
      "name": "getReportData",
      "outputs": [
        {
          "internalType": "uint256[10]",
          "name": "",
          "type": "uint256[10]"
        }
      ],
      "payable": false,
      "stateMutability": "view",
      "type": "function"
    },
    {
      "constant": false,
      "inputs": [
        {
          "internalType": "bytes32",
          "name": "_contracthash",
          "type": "bytes32"
        },
        {
          "internalType": "string",
          "name": "_link",
          "type": "string"
        },
        {
          "internalType": "uint256[4]",
          "name": "_rewards",
          "type": "uint256[4]"
        }
      ],
      "name": "RequestAudit",
      "outputs": [
        {
          "internalType": "bool",
          "name": "success",
          "type": "bool"
        }
      ],
      "payable": true,
      "stateMutability": "payable",
      "type": "function"
    },
    {
      "constant": false,
      "inputs": [
        {
          "internalType": "bytes32",
          "name": "_contracthash",
          "type": "bytes32"
        }
      ],
      "name": "depositAudit",
      "outputs": [
        {
          "internalType": "bool",
          "name": "success",
          "type": "bool"
        }
      ],
      "payable": true,
      "stateMutability": "payable",
      "type": "function"
    },
    {
      "constant": false,
      "inputs": [
        {
          "internalType": "bytes32",
          "name": "_contracthash",
          "type": "bytes32"
        },
        {
          "internalType": "bytes32",
          "name": "_reporthash",
          "type": "bytes32"
        },
        {
          "internalType": "string",
          "name": "_link",
          "type": "string"
        },
        {
          "internalType": "uint256[10]",
          "name": "_bugID",
          "type": "uint256[10]"
        },
        {
          "internalType": "uint256[10]",
          "name": "_bugClaim",
          "type": "uint256[10]"
        }
      ],
      "name": "SubmitReport",
      "outputs": [
        {
          "internalType": "bool",
          "name": "success",
          "type": "bool"
        }
      ],
      "payable": false,
      "stateMutability": "nonpayable",
      "type": "function"
    },
    {
      "constant": false,
      "inputs": [
        {
          "internalType": "uint256",
          "name": "_reportID",
          "type": "uint256"
        },
        {
          "internalType": "uint256[10]",
          "name": "_bugClaim",
          "type": "uint256[10]"
        },
        {
          "internalType": "uint256",
          "name": "addition",
          "type": "uint256"
        },
        {
          "internalType": "bool",
          "name": "received",
          "type": "bool"
        }
      ],
      "name": "VerifyReport",
      "outputs": [
        {
          "internalType": "bool",
          "name": "success",
          "type": "bool"
        }
      ],
      "payable": false,
      "stateMutability": "nonpayable",
      "type": "function"
    },
    {
      "constant": false,
      "inputs": [
        {
          "internalType": "uint256",
          "name": "_reportID",
          "type": "uint256"
        },
        {
          "internalType": "bool",
          "name": "agreed",
          "type": "bool"
        }
      ],
      "name": "ClaimResponse",
      "outputs": [
        {
          "internalType": "bool",
          "name": "success",
          "type": "bool"
        }
      ],
      "payable": false,
      "stateMutability": "nonpayable",
      "type": "function"
    },
    {
      "constant": false,
      "inputs": [
        {
          "internalType": "bytes32",
          "name": "_contracthash",
          "type": "bytes32"
        }
      ],
      "name": "CloseAuditRequest",
      "outputs": [
        {
          "internalType": "bool",
          "name": "success",
          "type": "bool"
        }
      ],
      "payable": false,
      "stateMutability": "nonpayable",
      "type": "function"
    },
    {
      "constant": false,
      "inputs": [
        {
          "internalType": "uint256",
          "name": "_reportID",
          "type": "uint256"
        }
      ],
      "name": "CloseReport",
      "outputs": [
        {
          "internalType": "bool",
          "name": "success",
          "type": "bool"
        }
      ],
      "payable": false,
      "stateMutability": "nonpayable",
      "type": "function"
    }
  ],
  "bytecode": "0x608060405234801561001057600080fd5b5033600f60006101000a81548173ffffffffffffffffffffffffffffffffffffffff021916908373ffffffffffffffffffffffffffffffffffffffff1602179055506143cd806100616000396000f3fe60806040526004361061019c5760003560e01c806388a8c95c116100ec578063bdf46b5c1161008a578063eae27f3111610064578063eae27f3114610c02578063ecb2f5b114610d02578063f015f85e14610d79578063fc862d8a14610da45761019c565b8063bdf46b5c14610954578063c942adf71461097f578063e2a4b24414610a895761019c565b80639c1f9cd0116100c65780639c1f9cd0146107c9578063ad6cb48d14610875578063b12a06c4146108da578063b285edb7146109055761019c565b806388a8c95c146105b25780638e8d1f7e1461061b5780639aace032146107395761019c565b806359cac73e11610159578063723d134111610133578063723d1341146104aa578063725f4c32146105095780637577ad5c146105345780637df556d1146105875761019c565b806359cac73e146103875780635d569a51146103da5780636546fccc1461045b5761019c565b8063022198581461019e57806304ed00ac146101c957806330a51449146101f457806337592a111461028457806345566f56146102e95780635443b33914610338575b005b3480156101aa57600080fd5b506101b3610dea565b6040518082815260200191505060405180910390f35b3480156101d557600080fd5b506101de610df0565b6040518082815260200191505060405180910390f35b34801561020057600080fd5b5061022d6004803603602081101561021757600080fd5b8101908080359060200190929190505050610df6565b6040518080602001828103825283818151815260200191508051906020019060200280838360005b83811015610270578082015181840152602081019050610255565b505050509050019250505060405180910390f35b34801561029057600080fd5b506102d3600480360360208110156102a757600080fd5b81019080803573ffffffffffffffffffffffffffffffffffffffff169060200190929190505050610e9a565b6040518082815260200191505060405180910390f35b3480156102f557600080fd5b506103226004803603602081101561030c57600080fd5b8101908080359060200190929190505050610eb2565b6040518082815260200191505060405180910390f35b34801561034457600080fd5b506103716004803603602081101561035b57600080fd5b8101908080359060200190929190505050610eca565b6040518082815260200191505060405180910390f35b34801561039357600080fd5b506103c0600480360360208110156103aa57600080fd5b8101908080359060200190929190505050610ee2565b604051808215151515815260200191505060405180910390f35b3480156103e657600080fd5b5061041d600480360360408110156103fd57600080fd5b810190808035906020019092919080359060200190929190505050611350565b6040518082600a60200280838360005b8381101561044857808201518184015260208101905061042d565b5050505090500191505060405180910390f35b34801561046757600080fd5b506104946004803603602081101561047e57600080fd5b8101908080359060200190929190505050611485565b6040518082815260200191505060405180910390f35b3480156104b657600080fd5b506104ef600480360360408110156104cd57600080fd5b810190808035906020019092919080351515906020019092919050505061149d565b604051808215151515815260200191505060405180910390f35b34801561051557600080fd5b5061051e611c5a565b6040518082815260200191505060405180910390f35b34801561054057600080fd5b5061056d6004803603602081101561055757600080fd5b8101908080359060200190929190505050611c60565b604051808215151515815260200191505060405180910390f35b34801561059357600080fd5b5061059c611e48565b6040518082815260200191505060405180910390f35b3480156105be57600080fd5b50610601600480360360208110156105d557600080fd5b81019080803573ffffffffffffffffffffffffffffffffffffffff169060200190929190505050611e4e565b604051808215151515815260200191505060405180910390f35b61071f600480360360c081101561063157600080fd5b81019080803590602001909291908035906020019064010000000081111561065857600080fd5b82018360208201111561066a57600080fd5b8035906020019184600183028401116401000000008311171561068c57600080fd5b91908080601f016020809104026020016040519081016040528093929190818152602001838380828437600081840152601f19601f82011690508083019250505050505050919291929080608001906004806020026040519081016040528092919082600460200280828437600081840152601f19601f8201169050808301925050505050509192919290505050611f3c565b604051808215151515815260200191505060405180910390f35b34801561074557600080fd5b506107726004803603602081101561075c57600080fd5b8101908080359060200190929190505050612676565b6040518080602001828103825283818151815260200191508051906020019060200280838360005b838110156107b557808201518184015260208101905061079a565b505050509050019250505060405180910390f35b3480156107d557600080fd5b5061085b60048036036101a08110156107ed57600080fd5b8101908080359060200190929190806101400190600a806020026040519081016040528092919082600a60200280828437600081840152601f19601f8201169050808301925050505050509192919290803590602001909291908035151590602001909291905050506126e4565b604051808215151515815260200191505060405180910390f35b34801561088157600080fd5b506108c46004803603602081101561089857600080fd5b81019080803573ffffffffffffffffffffffffffffffffffffffff1690602001909291905050506130a1565b6040518082815260200191505060405180910390f35b3480156108e657600080fd5b506108ef6130b9565b6040518082815260200191505060405180910390f35b34801561091157600080fd5b5061093e6004803603602081101561092857600080fd5b81019080803590602001909291905050506130bf565b6040518082815260200191505060405180910390f35b34801561096057600080fd5b506109696130d7565b6040518082815260200191505060405180910390f35b34801561098b57600080fd5b506109b8600480360360208110156109a257600080fd5b81019080803590602001909291905050506130dd565b604051808873ffffffffffffffffffffffffffffffffffffffff1673ffffffffffffffffffffffffffffffffffffffff16815260200187815260200186815260200180602001858152602001848152602001838152602001828103825286818151815260200191508051906020019080838360005b83811015610a48578082015181840152602081019050610a2d565b50505050905090810190601f168015610a755780820380516001836020036101000a031916815260200191505b509850505050505050505060405180910390f35b348015610a9557600080fd5b50610be860048036036102e0811015610aad57600080fd5b81019080803590602001909291908035906020019092919080359060200190640100000000811115610ade57600080fd5b820183602082011115610af057600080fd5b80359060200191846001830284011164010000000083111715610b1257600080fd5b91908080601f016020809104026020016040519081016040528093929190818152602001838380828437600081840152601f19601f820116905080830192505050505050509192919290806101400190600a806020026040519081016040528092919082600a60200280828437600081840152601f19601f8201169050808301925050505050509192919290806101400190600a806020026040519081016040528092919082600a60200280828437600081840152601f19601f82011690508083019250505050505091929192905050506131d7565b604051808215151515815260200191505060405180910390f35b348015610c0e57600080fd5b50610c3b60048036036020811015610c2557600080fd5b8101908080359060200190929190505050613648565b604051808673ffffffffffffffffffffffffffffffffffffffff1673ffffffffffffffffffffffffffffffffffffffff1681526020018060200185815260200184815260200183151515158152602001828103825286818151815260200191508051906020019080838360005b83811015610cc3578082015181840152602081019050610ca8565b50505050905090810190601f168015610cf05780820380516001836020036101000a031916815260200191505b50965050505050505060405180910390f35b348015610d0e57600080fd5b50610d3b60048036036020811015610d2557600080fd5b8101908080359060200190929190505050613743565b6040518082600460200280838360005b83811015610d66578082015181840152602081019050610d4b565b5050505090500191505060405180910390f35b348015610d8557600080fd5b50610d8e6137a4565b6040518082815260200191505060405180910390f35b610dd060048036036020811015610dba57600080fd5b81019080803590602001909291905050506137aa565b604051808215151515815260200191505060405180910390f35b600d5481565b60015481565b606060086000838152602001908152602001600020600901805480602002602001604051908101604052809291908181526020018280548015610e8e57602002820191906000526020600020905b8160009054906101000a900473ffffffffffffffffffffffffffffffffffffffff1673ffffffffffffffffffffffffffffffffffffffff1681526020019060010190808311610e44575b50505050509050919050565b60046020528060005260406000206000915090505481565b600c6020528060005260406000206000915090505481565b600b6020528060005260406000206000915090505481565b60003373ffffffffffffffffffffffffffffffffffffffff166008600084815260200190815260200160002060000160009054906101000a900473ffffffffffffffffffffffffffffffffffffffff1673ffffffffffffffffffffffffffffffffffffffff1614610f9e576040517f08c379a000000000000000000000000000000000000000000000000000000000815260040180806020018281038252602d815260200180614186602d913960400191505060405180910390fd5b6000151560086000848152602001908152602001600020600a0160009054906101000a900460ff1615151461103b576040517f08c379a000000000000000000000000000000000000000000000000000000000815260040180806020018281038252601c8152602001807f636c6f73652061756469743a20617564697420697320636c6f7365640000000081525060200191505060405180910390fd5b600080600090505b60086000858152602001908152602001600020600701548110156110db57600060086000868152602001908152602001600020600801828154811061108457fe5b906000526020600020015490506000600e600083815260200190815260200160002060240154905060018114156110cc576110c9600185613a9290919063ffffffff16565b93505b50508080600101915050611043565b5060008114611135576040517f08c379a00000000000000000000000000000000000000000000000000000000081526004018080602001828103825260248152602001806142c26024913960400191505060405180910390fd5b6000600860008581526020019081526020016000206002015490506000600a60008681526020019081526020016000205490506000600b60008381526020019081526020016000205490506000600c600061119c6001600754613b1a90919063ffffffff16565b8152602001908152602001600020549050600160086000898152602001908152602001600020600a0160006101000a81548160ff0219169083151502179055506112076008600089815260200190815260200160002060020154600054613b1a90919063ffffffff16565b6000819055506000600860008981526020019081526020016000206002018190555080600c60008481526020019081526020016000208190555081600b6000838152602001908152602001600020819055506000600c60006112756001600754613b1a90919063ffffffff16565b8152602001908152602001600020819055506000600b6000858152602001908152602001600020819055506112b66001600754613b1a90919063ffffffff16565b6007819055503373ffffffffffffffffffffffffffffffffffffffff166108fc859081150290604051600060405180830381858888f19350505050158015611302573d6000803e3d6000fd5b507fe3df13cd1f99f37af0d0966be4de1082cf3ee06bc44e0a4d590996d51d2117af8785604051808381526020018281526020019250505060405180910390a1600195505050505050919050565b611358613d42565b60008214156113ba57600e6000848152602001908152602001600020600501600a806020026040519081016040528092919082600a80156113ae576020028201915b81548152602001906001019080831161139a575b5050505050905061147f565b600182141561141c57600e6000848152602001908152602001600020600f01600a806020026040519081016040528092919082600a8015611410576020028201915b8154815260200190600101908083116113fc575b5050505050905061147f565b600282141561147e57600e6000848152602001908152602001600020601901600a806020026040519081016040528092919082600a8015611472576020028201915b81548152602001906001019080831161145e575b5050505050905061147f565b5b92915050565b600a6020528060005260406000206000915090505481565b600080600e60008581526020019081526020016000206001015490506002600e60008681526020019081526020016000206024015414611528576040517f08c379a000000000000000000000000000000000000000000000000000000000815260040180806020018281038252602481526020018061434a6024913960400191505060405180910390fd5b3373ffffffffffffffffffffffffffffffffffffffff16600e600086815260200190815260200160002060000160009054906101000a900473ffffffffffffffffffffffffffffffffffffffff1673ffffffffffffffffffffffffffffffffffffffff16146115e2576040517f08c379a000000000000000000000000000000000000000000000000000000000815260040180806020018281038252602f815260200180614157602f913960400191505060405180910390fd5b6003600e600086815260200190815260200160002060240181905550600860008281526020019081526020016000206009013390806001815401808255809150509060018203906000526020600020016000909192909190916101000a81548173ffffffffffffffffffffffffffffffffffffffff021916908373ffffffffffffffffffffffffffffffffffffffff160217905550506000600e600086815260200190815260200160002060250154905060006116bd60036116af6103e885613ba390919063ffffffff16565b613c3290919063ffffffff16565b905060006116d48284613b1a90919063ffffffff16565b90506001151586151514156117b3576116f883600154613b1a90919063ffffffff16565b600181905550600f60009054906101000a900473ffffffffffffffffffffffffffffffffffffffff1673ffffffffffffffffffffffffffffffffffffffff166108fc839081150290604051600060405180830381858888f19350505050158015611766573d6000803e3d6000fd5b503373ffffffffffffffffffffffffffffffffffffffff166108fc829081150290604051600060405180830381858888f193505050501580156117ad573d6000803e3d6000fd5b50611c05565b600080600090505b600a81101561186e576000600e60008b815260200190815260200160002060190182600a81106117e757fe5b0154146118615760006118266001600e60008d815260200190815260200160002060190184600a811061181657fe5b0154613b1a90919063ffffffff16565b905061185d60086000898152602001908152602001600020600301826004811061184c57fe5b015484613a9290919063ffffffff16565b9250505b80806001019150506117bb565b50600061188b662386f26fc1000083613ba390919063ffffffff16565b90508060046000600860008a815260200190815260200160002060000160009054906101000a900473ffffffffffffffffffffffffffffffffffffffff1673ffffffffffffffffffffffffffffffffffffffff1673ffffffffffffffffffffffffffffffffffffffff168152602001908152602001600020541115611a2b5761191f81600254613b1a90919063ffffffff16565b6002819055506119ad8160046000600860008b815260200190815260200160002060000160009054906101000a900473ffffffffffffffffffffffffffffffffffffffff1673ffffffffffffffffffffffffffffffffffffffff1673ffffffffffffffffffffffffffffffffffffffff16815260200190815260200160002054613b1a90919063ffffffff16565b60046000600860008a815260200190815260200160002060000160009054906101000a900473ffffffffffffffffffffffffffffffffffffffff1673ffffffffffffffffffffffffffffffffffffffff1673ffffffffffffffffffffffffffffffffffffffff16815260200190815260200160002081905550611b37565b611ab560046000600860008a815260200190815260200160002060000160009054906101000a900473ffffffffffffffffffffffffffffffffffffffff1673ffffffffffffffffffffffffffffffffffffffff1673ffffffffffffffffffffffffffffffffffffffff16815260200190815260200160002054600254613b1a90919063ffffffff16565b600281905550600060046000600860008a815260200190815260200160002060000160009054906101000a900473ffffffffffffffffffffffffffffffffffffffff1673ffffffffffffffffffffffffffffffffffffffff1673ffffffffffffffffffffffffffffffffffffffff168152602001908152602001600020819055505b611b4c85600154613b1a90919063ffffffff16565b600181905550600f60009054906101000a900473ffffffffffffffffffffffffffffffffffffffff1673ffffffffffffffffffffffffffffffffffffffff166108fc859081150290604051600060405180830381858888f19350505050158015611bba573d6000803e3d6000fd5b503373ffffffffffffffffffffffffffffffffffffffff166108fc849081150290604051600060405180830381858888f19350505050158015611c01573d6000803e3d6000fd5b5050505b7fc78a1f7643b051fe09ba2492f98d07ddb475c75c9da501943bf03100c0bfbe8384888360405180848152602001838152602001828152602001935050505060405180910390a1600194505050505092915050565b60065481565b60006001600e60008481526020019081526020016000206024015414611cee576040517f08c379a000000000000000000000000000000000000000000000000000000000815260040180806020018281038252601e8152602001807f636c6f7365207265706f72743a207265706f727420697320636c6f736564000081525060200191505060405180910390fd5b3373ffffffffffffffffffffffffffffffffffffffff16600e600084815260200190815260200160002060000160009054906101000a900473ffffffffffffffffffffffffffffffffffffffff1673ffffffffffffffffffffffffffffffffffffffff1614611dc5576040517f08c379a000000000000000000000000000000000000000000000000000000000815260040180806020018281038252601b8152602001807f636c6f7365207265706f72743a206e6f7420746865206f776e6572000000000081525060200191505060405180910390fd5b6003600e6000848152602001908152602001600020602401819055507fc78a1f7643b051fe09ba2492f98d07ddb475c75c9da501943bf03100c0bfbe83600e60008481526020019081526020016000206001015483600060405180848152602001838152602001828152602001935050505060405180910390a160019050919050565b60005481565b6000600f60009054906101000a900473ffffffffffffffffffffffffffffffffffffffff1673ffffffffffffffffffffffffffffffffffffffff163373ffffffffffffffffffffffffffffffffffffffff1614611ef6576040517f08c379a000000000000000000000000000000000000000000000000000000000815260040180806020018281038252602b81526020018061436e602b913960400191505060405180910390fd5b81600f60006101000a81548173ffffffffffffffffffffffffffffffffffffffff021916908373ffffffffffffffffffffffffffffffffffffffff160217905550919050565b60006060806000611fbe85600360048110611f5357fe5b6020020151611fb087600260048110611f6857fe5b6020020151611fa289600160048110611f7d57fe5b60200201518a600060048110611f8f57fe5b6020020151613a9290919063ffffffff16565b613a9290919063ffffffff16565b613a9290919063ffffffff16565b90506000611fd58234613ba390919063ffffffff16565b90506000611fec8284613c3290919063ffffffff16565b90506000612018600361200a6103e885613ba390919063ffffffff16565b613c3290919063ffffffff16565b9050600061202f8234613b1a90919063ffffffff16565b9050600073ffffffffffffffffffffffffffffffffffffffff16600860008d815260200190815260200160002060000160009054906101000a900473ffffffffffffffffffffffffffffffffffffffff1673ffffffffffffffffffffffffffffffffffffffff16146120ec576040517f08c379a00000000000000000000000000000000000000000000000000000000081526004018080602001828103825260218152602001806142076021913960400191505060405180910390fd5b6000341415612163576040517f08c379a000000000000000000000000000000000000000000000000000000000815260040180806020018281038252601e8152602001807f726571756573742061756469743a206e6f20726577617264206164646564000081525060200191505060405180910390fd5b60006121788683613cb890919063ffffffff16565b146121ce576040517f08c379a000000000000000000000000000000000000000000000000000000000815260040180806020018281038252602d81526020018061431d602d913960400191505060405180910390fd5b60006122058a6001600481106121e057fe5b60200201518b6000600481106121f257fe5b6020020151613cb890919063ffffffff16565b1461225b576040517f08c379a000000000000000000000000000000000000000000000000000000000815260040180806020018281038252603d815260200180614228603d913960400191505060405180910390fd5b60006122928a60026004811061226d57fe5b60200201518b60016004811061227f57fe5b6020020151613cb890919063ffffffff16565b146122e8576040517f08c379a000000000000000000000000000000000000000000000000000000000815260040180806020018281038252603b81526020018061411c603b913960400191505060405180910390fd5b600061231f8a6003600481106122fa57fe5b60200201518b60026004811061230c57fe5b6020020151613cb890919063ffffffff16565b14612375576040517f08c379a000000000000000000000000000000000000000000000000000000000815260040180806020018281038252603c815260200180614286603c913960400191505060405180910390fd5b61238a81600054613a9290919063ffffffff16565b6000819055506040518061010001604052803373ffffffffffffffffffffffffffffffffffffffff1681526020018b81526020018281526020018a81526020016000815260200188815260200187815260200160001515815250600860008d815260200190815260200160002060008201518160000160006101000a81548173ffffffffffffffffffffffffffffffffffffffff021916908373ffffffffffffffffffffffffffffffffffffffff160217905550602082015181600101908051906020019061245a929190613d65565b506040820151816002015560608201518160030190600461247c929190613de5565b506080820151816007015560a08201518160080190805190602001906124a3929190613e25565b5060c08201518160090190805190602001906124c0929190613e72565b5060e082015181600a0160006101000a81548160ff0219169083151502179055509050508a60096000600654815260200190815260200160002081905550600654600a60008d815260200190815260200160002081905550600754600b6000600654815260200190815260200160002081905550600654600c60006007548152602001908152602001600020819055506125666001600654613a9290919063ffffffff16565b6006819055506125826001600754613a9290919063ffffffff16565b600781905550600f60009054906101000a900473ffffffffffffffffffffffffffffffffffffffff1673ffffffffffffffffffffffffffffffffffffffff166108fc839081150290604051600060405180830381858888f193505050501580156125f0573d6000803e3d6000fd5b507f56108c6babe58f97ae0f438bfa7f11e87becf44257f6c67a02a21ce0b107a9838b8633604051808481526020018381526020018273ffffffffffffffffffffffffffffffffffffffff1673ffffffffffffffffffffffffffffffffffffffff168152602001935050505060405180910390a160019750505050505050509392505050565b6060600860008381526020019081526020016000206008018054806020026020016040519081016040528092919081815260200182805480156126d857602002820191906000526020600020905b8154815260200190600101908083116126c4575b50505050509050919050565b600080600e600087815260200190815260200160002060000160009054906101000a900473ffffffffffffffffffffffffffffffffffffffff1690506000600e60008881526020019081526020016000206001015490503373ffffffffffffffffffffffffffffffffffffffff166008600083815260200190815260200160002060000160009054906101000a900473ffffffffffffffffffffffffffffffffffffffff1673ffffffffffffffffffffffffffffffffffffffff16146127f5576040517f08c379a00000000000000000000000000000000000000000000000000000000081526004018080602001828103825260298152602001806140f36029913960400191505060405180910390fd5b6001600e60008981526020019081526020016000206024015414612864576040517f08c379a00000000000000000000000000000000000000000000000000000000081526004018080602001828103825260258152602001806141e26025913960400191505060405180910390fd5b85600e600089815260200190815260200160002060190190600a612889929190613efc565b5060008060008090505b600a811015612a835760058982600a81106128aa57fe5b6020020151106128b957600080fd5b6000600e60008c8152602001908152602001600020600f0182600a81106128dc57fe5b015414158015612927575060011515600e60008c815260200190815260200160002060230182600a811061290c57fe5b602091828204019190069054906101000a900460ff16151514155b15612a765760011515600e60008c815260200190815260200160002060230182600a811061295157fe5b602091828204019190069054906101000a905050506000600e60008c815260200190815260200160002060190182600a811061298957fe5b015414612a035760006129c86001600e60008e815260200190815260200160002060190184600a81106129b857fe5b0154613b1a90919063ffffffff16565b90506129ff6008600087815260200190815260200160002060030182600481106129ee57fe5b015485613a9290919063ffffffff16565b9350505b6000612a3b6001600e60008e8152602001908152602001600020600f0184600a8110612a2b57fe5b0154613b1a90919063ffffffff16565b9050612a72600860008781526020019081526020016000206003018260048110612a6157fe5b015484613a9290919063ffffffff16565b9250505b8080600101915050612893565b506000871115612aeb5760058710612a9a57600080fd5b6000612ab0600189613b1a90919063ffffffff16565b9050612ae7600860008681526020019081526020016000206003018260048110612ad657fe5b015484613a9290919063ffffffff16565b9250505b60008015158715151415612de0576003600e60008c815260200190815260200160002060240181905550612b2f662386f26fc1000083613ba390919063ffffffff16565b90508060056000600e60008e815260200190815260200160002060000160009054906101000a900473ffffffffffffffffffffffffffffffffffffffff1673ffffffffffffffffffffffffffffffffffffffff1673ffffffffffffffffffffffffffffffffffffffff168152602001908152602001600020541115612ccf57612bc381600354613b1a90919063ffffffff16565b600381905550612c518160056000600e60008f815260200190815260200160002060000160009054906101000a900473ffffffffffffffffffffffffffffffffffffffff1673ffffffffffffffffffffffffffffffffffffffff1673ffffffffffffffffffffffffffffffffffffffff16815260200190815260200160002054613b1a90919063ffffffff16565b60056000600e60008e815260200190815260200160002060000160009054906101000a900473ffffffffffffffffffffffffffffffffffffffff1673ffffffffffffffffffffffffffffffffffffffff1673ffffffffffffffffffffffffffffffffffffffff16815260200190815260200160002081905550612ddb565b612d5960056000600e60008e815260200190815260200160002060000160009054906101000a900473ffffffffffffffffffffffffffffffffffffffff1673ffffffffffffffffffffffffffffffffffffffff1673ffffffffffffffffffffffffffffffffffffffff16815260200190815260200160002054600354613b1a90919063ffffffff16565b600381905550600060056000600e60008e815260200190815260200160002060000160009054906101000a900473ffffffffffffffffffffffffffffffffffffffff1673ffffffffffffffffffffffffffffffffffffffff1673ffffffffffffffffffffffffffffffffffffffff168152602001908152602001600020819055505b613035565b612dfa662386f26fc1000084613ba390919063ffffffff16565b90506002600e60008c815260200190815260200160002060240181905550612e2d81600354613a9290919063ffffffff16565b600381905550612e8581600560008873ffffffffffffffffffffffffffffffffffffffff1673ffffffffffffffffffffffffffffffffffffffff16815260200190815260200160002054613a9290919063ffffffff16565b600560008773ffffffffffffffffffffffffffffffffffffffff1673ffffffffffffffffffffffffffffffffffffffff16815260200190815260200160002081905550612edd81600254613a9290919063ffffffff16565b600281905550612f3581600460003373ffffffffffffffffffffffffffffffffffffffff1673ffffffffffffffffffffffffffffffffffffffff16815260200190815260200160002054613a9290919063ffffffff16565b600460003373ffffffffffffffffffffffffffffffffffffffff1673ffffffffffffffffffffffffffffffffffffffff16815260200190815260200160002081905550612f8d83600054613b1a90919063ffffffff16565b600081905550612fa883600154613a9290919063ffffffff16565b600181905550612fd7836008600087815260200190815260200160002060020154613b1a90919063ffffffff16565b600860008681526020019081526020016000206002018190555061301a83600e60008d815260200190815260200160002060250154613a9290919063ffffffff16565b600e60008c8152602001908152602001600020602501819055505b7feebfb8be9b20131bac6d1b3f5808fc7358aace316e668d924d14fa3f69e38361848b85848b60405180868152602001858152602001848152602001838152602001821515151581526020019550505050505060405180910390a1600195505050505050949350505050565b60056020528060005260406000206000915090505481565b60025481565b60096020528060005260406000206000915090505481565b60075481565b600e6020528060005260406000206000915090508060000160009054906101000a900473ffffffffffffffffffffffffffffffffffffffff1690806001015490806002015490806003018054600181600116156101000203166002900480601f0160208091040260200160405190810160405280929190818152602001828054600181600116156101000203166002900480156131bb5780601f10613190576101008083540402835291602001916131bb565b820191906000526020600020905b81548152906001019060200180831161319e57829003601f168201915b5050505050908060040154908060240154908060250154905087565b600060086000878152602001908152602001600020600a0160009054906101000a900460ff1615613270576040517f08c379a000000000000000000000000000000000000000000000000000000000815260040180806020018281038252601e8152602001807f7375626d6974207265706f72743a20617564697420697320636c6f736564000081525060200191505060405180910390fd5b3373ffffffffffffffffffffffffffffffffffffffff166008600088815260200190815260200160002060000160009054906101000a900473ffffffffffffffffffffffffffffffffffffffff1673ffffffffffffffffffffffffffffffffffffffff16141561332b576040517f08c379a000000000000000000000000000000000000000000000000000000000815260040180806020018281038252602f8152602001806141b3602f913960400191505060405180910390fd5b613333613d42565b61333b613f3c565b600080600090505b600a81101561339b5760058682600a811061335a57fe5b60200201511061336957600080fd5b61338c8682600a811061337857fe5b602002015183613a9290919063ffffffff16565b91508080600101915050613343565b506133c66001600860008c815260200190815260200160002060070154613a9290919063ffffffff16565b600860008b8152602001908152602001600020600701819055506040518061016001604052803373ffffffffffffffffffffffffffffffffffffffff1681526020018a8152602001898152602001888152602001828152602001878152602001868152602001848152602001838152602001600181526020016000815250600e6000600d54815260200190815260200160002060008201518160000160006101000a81548173ffffffffffffffffffffffffffffffffffffffff021916908373ffffffffffffffffffffffffffffffffffffffff160217905550602082015181600101556040820151816002015560608201518160030190805190602001906134d0929190613d65565b506080820151816004015560a08201518160050190600a6134f2929190613f5f565b5060c082015181600f0190600a61350a929190613f5f565b5060e08201518160190190600a613522929190613f5f565b506101008201518160230190600a61353b929190613f9f565b5061012082015181602401556101408201518160250155905050600860008a8152602001908152602001600020600801600d5490806001815401808255809150509060018203906000526020600020016000909192909190915055506135ad6001600d54613a9290919063ffffffff16565b600d819055507f07560c500b82e1578564077662f4779647645a0b0489b2e7957310c760452db78989600d548433604051808681526020018581526020018481526020018381526020018273ffffffffffffffffffffffffffffffffffffffff1673ffffffffffffffffffffffffffffffffffffffff1681526020019550505050505060405180910390a16001935050505095945050505050565b60086020528060005260406000206000915090508060000160009054906101000a900473ffffffffffffffffffffffffffffffffffffffff1690806001018054600181600116156101000203166002900480601f01602080910402602001604051908101604052809291908181526020018280546001816001161561010002031660029004801561371a5780601f106136ef5761010080835404028352916020019161371a565b820191906000526020600020905b8154815290600101906020018083116136fd57829003601f168201915b50505050509080600201549080600701549080600a0160009054906101000a900460ff16905085565b61374b614038565b60086000838152602001908152602001600020600301600480602002604051908101604052809291908260048015613798576020028201915b815481526020019060010190808311613784575b50505050509050919050565b60035481565b600080600860008481526020019081526020016000206003016003600481106137cf57fe5b0154905060006137e88234613ba390919063ffffffff16565b905060006137ff8284613c3290919063ffffffff16565b9050600061382b600361381d6103e885613ba390919063ffffffff16565b613c3290919063ffffffff16565b905060006138428234613b1a90919063ffffffff16565b905060086000888152602001908152602001600020600a0160009054906101000a900460ff16156138db576040517f08c379a000000000000000000000000000000000000000000000000000000000815260040180806020018281038252601e8152602001807f6465706f7369742061756469743a20617564697420697320636c6f736564000081525060200191505060405180910390fd5b6000341415613952576040517f08c379a000000000000000000000000000000000000000000000000000000000815260040180806020018281038252601e8152602001807f726571756573742061756469743a206e6f20726577617264206164646564000081525060200191505060405180910390fd5b60006139678683613cb890919063ffffffff16565b146139bd576040517f08c379a00000000000000000000000000000000000000000000000000000000081526004018080602001828103825260378152602001806142e66037913960400191505060405180910390fd5b6139d281600054613a9290919063ffffffff16565b600081905550613a0181600860008a815260200190815260200160002060020154613a9290919063ffffffff16565b6008600089815260200190815260200160002060020181905550600f60009054906101000a900473ffffffffffffffffffffffffffffffffffffffff1673ffffffffffffffffffffffffffffffffffffffff166108fc839081150290604051600060405180830381858888f19350505050158015613a83573d6000803e3d6000fd5b50600195505050505050919050565b600080828401905083811015613b10576040517f08c379a000000000000000000000000000000000000000000000000000000000815260040180806020018281038252601b8152602001807f536166654d6174683a206164646974696f6e206f766572666c6f77000000000081525060200191505060405180910390fd5b8091505092915050565b600082821115613b92576040517f08c379a000000000000000000000000000000000000000000000000000000000815260040180806020018281038252601e8152602001807f536166654d6174683a207375627472616374696f6e206f766572666c6f77000081525060200191505060405180910390fd5b600082840390508091505092915050565b6000808211613c1a576040517f08c379a000000000000000000000000000000000000000000000000000000000815260040180806020018281038252601a8152602001807f536166654d6174683a206469766973696f6e206279207a65726f00000000000081525060200191505060405180910390fd5b6000828481613c2557fe5b0490508091505092915050565b600080831415613c455760009050613cb2565b6000828402905082848281613c5657fe5b0414613cad576040517f08c379a00000000000000000000000000000000000000000000000000000000081526004018080602001828103825260218152602001806142656021913960400191505060405180910390fd5b809150505b92915050565b600080821415613d30576040517f08c379a00000000000000000000000000000000000000000000000000000000081526004018080602001828103825260188152602001807f536166654d6174683a206d6f64756c6f206279207a65726f000000000000000081525060200191505060405180910390fd5b818381613d3957fe5b06905092915050565b604051806101400160405280600a90602082028038833980820191505090505090565b828054600181600116156101000203166002900490600052602060002090601f016020900481019282601f10613da657805160ff1916838001178555613dd4565b82800160010185558215613dd4579182015b82811115613dd3578251825591602001919060010190613db8565b5b509050613de1919061405a565b5090565b8260048101928215613e14579160200282015b82811115613e13578251825591602001919060010190613df8565b5b509050613e21919061405a565b5090565b828054828255906000526020600020908101928215613e61579160200282015b82811115613e60578251825591602001919060010190613e45565b5b509050613e6e919061405a565b5090565b828054828255906000526020600020908101928215613eeb579160200282015b82811115613eea5782518260006101000a81548173ffffffffffffffffffffffffffffffffffffffff021916908373ffffffffffffffffffffffffffffffffffffffff16021790555091602001919060010190613e92565b5b509050613ef8919061407f565b5090565b82600a8101928215613f2b579160200282015b82811115613f2a578251825591602001919060010190613f0f565b5b509050613f38919061405a565b5090565b604051806101400160405280600a90602082028038833980820191505090505090565b82600a8101928215613f8e579160200282015b82811115613f8d578251825591602001919060010190613f72565b5b509050613f9b919061405a565b5090565b82600a601f016020900481019282156140275791602002820160005b83821115613ff857835183826101000a81548160ff0219169083151502179055509260200192600101602081600001049283019260010302613fbb565b80156140255782816101000a81549060ff0219169055600101602081600001049283019260010302613ff8565b505b50905061403491906140c2565b5090565b6040518060800160405280600490602082028038833980820191505090505090565b61407c91905b80821115614078576000816000905550600101614060565b5090565b90565b6140bf91905b808211156140bb57600081816101000a81549073ffffffffffffffffffffffffffffffffffffffff021916905550600101614085565b5090565b90565b6140ef91905b808211156140eb57600081816101000a81549060ff0219169055506001016140c8565b5090565b9056fe766572696679207265706f72743a206e6f7420746865206f776e6572206f6620746865206175646974726571756573742061756469743a206869676820726577617264206973206e6f74206d756c7469706c65206f66206d656469756d20726577617264636c61696d207265706f72743a206d73672e73656e646572206973206e6f74206f776e6572206f66207265706f7274636c6f73652061756469743a206d73672e73656e646572206973206e6f74206f776e6572206f662061756469747375626d6974207265706f72743a2061756469746f7220616e64206175646974656520617265207468652073616d65766572696679207265706f72743a207265706f7274206973206e6f74207374617475732031726571756573742061756469743a206175646974206973206e6f6e20656d707479726571756573742061756469743a20637269746963616c20726577617264206973206e6f74206d756c7469706c65206f66206869676820726577617264536166654d6174683a206d756c7469706c69636174696f6e206f766572666c6f77726571756573742061756469743a20637269746963616c206d656469756d206973206e6f74206d756c7469706c65206f66206c6f7720726577617264636c6f73652061756469743a20746865726520697320616e206f70656e207265706f72746465706f7369742061756469743a206d73672e76616c7565206e6f74206d756c7469706c65206f66206d696e696d756d20726577617264726571756573742061756469743a206d73672e76616c7565206e6f7420657175616c20746f2072657761726473636c61696d207265706f72743a207265706f7274206973206e6f742073746174757320326368616e676520646576656c6f7065723a206e6f74207468652063757272656e7420646576656c6f706572a265627a7a72315820c6888a781f3119bf3dd27ddfc2bbd6933f7cea147aec5c0d11cf534f16cd339d64736f6c63430005100032",
  "source": "pragma solidity 0.5.16;\n\nimport \"./SafeMath.sol\";\n\n/**\n * @dev banq audit is a decentralized audit platform for opensource (smart contract) audit projects\n *      anyone can submit audit request and anyone can submit a audit report. A successful agree results in\n *      increased loyalty points. A disagree results in loss of loyalty points.\n */\ncontract BanqAudit {\n    using SafeMath for uint256;\n    \n    //audit data\n    struct Audit {\n        address owner;\n        string link;\n        uint256 balance;\n        uint256[4] rewards;\n        uint256 reportIndex;\n        uint256[] reports;\n        address[] validated;\n        bool closed;\n    }\n    \n    //audit report data\n    struct Report {\n        address owner;\n        bytes32 auditid;\n        bytes32 reportid;\n        string link;\n        uint256 totalrisk;\n        uint256[10] bugs;\n        uint256[10] bugrisk;\n        uint256[10] bugreview;\n        bool[10] bugclosed;\n        //reportstatus 1 = opened, 2 = responded auditee & 3 = closed auditor\n        uint256 reportstatus;           \n        uint256 payout;\n    }\n    \n    //Total variables\n    uint256 public totalRewardAvailable;\n    uint256 public totalPendingPayout;\n\n    //reliability points auditor and auditee\n    uint256 public totalReliability_auditee;\n    uint256 public totalReliability_auditor;\n    mapping (address => uint256) public reliability_auditee; \n    mapping (address => uint256) public reliability_auditor; \n    \n    //audit requests index and mapping of audits\n    uint256 public indexTotal;\n    uint256 public indexPending;\n    mapping (bytes32 => Audit) public audits;\n    mapping (uint256 => bytes32) public index_audit;\n    mapping (bytes32 => uint256) public audit_index;\n    mapping (uint256 => uint256) public total_pending;\n    mapping (uint256 => uint256) public pending_total;\n    \n    //audit report index and mapping of audits\n    uint256 public indexReports;\n    mapping (uint256 => Report) public reports;\n    \n    //address developer used for fee payment\n    address payable dev;\n\n    //Events to submit during stages of audit\n    event AuditRequest(bytes32 _contracthash, uint256 _rewardtotal, address owner);\n    event ReportSubmit(bytes32 _contracthash, bytes32 _reporthash, uint256 _reportid, uint256 _risktotal, address owner);\n    event VerifiedReport(bytes32 _contracthash, uint256 _reportid, uint256 _amountreview, uint256 _points, bool received);\n    event ClosedReport(bytes32 _contracthash, uint256 _reportid, uint256 _payout);\n    event ClosedAudit(bytes32 _contracthash, uint256 _amountleft);\n\n    constructor() public {\n        dev = msg.sender;\n    }\n\n    /**\n     * @dev fallback function. Makes the contract payable.\n     */\n    function() external payable {}\n\n    /**\n     * @dev function for the developer to change the address. \n     */\n    function changeDev(address payable _dev) external returns (bool) {\n        require(msg.sender == dev, \"change developer: not the current developer\");\n        dev = _dev;\n    }\n\n    /**\n     * @dev functions to get the arrays of the audit and report structs.\n     */\n     function getAuditData(bytes32 _contracthash) public view returns (uint256[4] memory) {\n            return audits[_contracthash].rewards;\n     }\n     function getAuditReports(bytes32 _contracthash) public view returns (uint256[] memory) {\n            return audits[_contracthash].reports;\n     }\n     function getAuditValidators(bytes32 _contracthash) public view returns (address[] memory) {\n            return audits[_contracthash].validated;\n     }\n     function getReportData(uint256 _indexReports, uint256 id) public view returns (uint256[10] memory) {\n            if (id == 0) {\n                return reports[_indexReports].bugs;\n            }\n            if (id == 1) {\n                return reports[_indexReports].bugrisk;\n            }\n            if (id == 2) {\n                return reports[_indexReports].bugreview;\n            }\n     } \n     \n    /**\n     * @dev auditee can request an audit using this function and sets reward per bug and bug risk.\n     *      contract needs a deposit of multiples of the total reward.\n     * \n     */\n    function RequestAudit(bytes32 _contracthash, string memory _link, uint256[4] memory _rewards) public payable returns (bool success) {\n            uint256[] memory emptyarray;\n            address[] memory emptyaddress;\n            uint256 totalRewards = _rewards[0].add(_rewards[1]).add(_rewards[2]).add(_rewards[3]);\n            //calculate fee 0.3% and deduct form deposit\n            uint256 deposit_multiplier = msg.value.div(totalRewards);\n            uint256 total = totalRewards.mul(deposit_multiplier);\n            uint256 fee = total.div(1000).mul(3);\n            uint256 amount = msg.value.sub(fee);\n            //Check if rewards are multiple of each other and msg.value\n            require(audits[_contracthash].owner == address(0), \"request audit: audit is non empty\");\n            require(msg.value != 0, \"request audit: no reward added\");\n            require(amount.mod(totalRewards) == 0, \"request audit: msg.value not equal to rewards\");\n            require(_rewards[0].mod(_rewards[1]) == 0, \"request audit: critical reward is not multiple of high reward\");\n            require(_rewards[1].mod(_rewards[2]) == 0, \"request audit: high reward is not multiple of medium reward\");\n            require(_rewards[2].mod(_rewards[3]) == 0, \"request audit: critical medium is not multiple of low reward\");\n            totalRewardAvailable = totalRewardAvailable.add(amount);\n            audits[_contracthash] = Audit({owner: msg.sender,\n                                            link: _link,\n                                            balance: amount,\n                                            rewards: _rewards,\n                                            reportIndex: 0,\n                                            reports: emptyarray,\n                                            validated: emptyaddress,\n                                            closed: false\n                                    });\n            index_audit[indexTotal] = _contracthash;\n            audit_index[_contracthash] = indexTotal;\n            //Set audit as pending\n            total_pending[indexTotal] = indexPending;\n            pending_total[indexPending] = indexTotal;\n            indexTotal = indexTotal.add(1);\n            indexPending = indexPending.add(1);\n            dev.transfer(fee);\n            emit AuditRequest(_contracthash, totalRewards, msg.sender);\n            return true;\n    }\n    \n    /**\n     * @dev auditee can deposit additional funds to a pending audit.\n     */\n    function depositAudit(bytes32 _contracthash) public payable returns (bool success) {\n            uint256 minimum = audits[_contracthash].rewards[3];\n            //calculate fee 0.3% and deduct form deposit\n            uint256 deposit_multiplier = msg.value.div(minimum);\n            uint256 total = minimum.mul(deposit_multiplier);\n            uint256 fee = total.div(1000).mul(3);\n            uint256 amount = msg.value.sub(fee);\n            require(!audits[_contracthash].closed, \"deposit audit: audit is closed\");\n            require(msg.value != 0, \"request audit: no reward added\");\n            require(amount.mod(minimum) == 0, \"deposit audit: msg.value not multiple of minimum reward\");\n            totalRewardAvailable = totalRewardAvailable.add(amount);\n            audits[_contracthash].balance = audits[_contracthash].balance.add(amount);\n            dev.transfer(fee);\n            return true;\n    }\n    \n    /**\n     * @dev auditor can submit a report (bug) for a pending audit.\n     */\n    function SubmitReport(bytes32 _contracthash, bytes32 _reporthash, string memory _link, uint256[10] memory _bugID, uint256[10] memory _bugClaim) public returns (bool success) {\n            require(!audits[_contracthash].closed, \"submit report: audit is closed\");\n            require(audits[_contracthash].owner != msg.sender, \"submit report: auditor and auditee are the same\");\n            uint256[10] memory emptyarray; \n            bool[10] memory emptyarray1; \n            uint256 totalrisk;\n            for (uint256 i = 0; i < 10; i++) {\n                require(_bugClaim[i] < 5);\n                totalrisk = totalrisk.add(_bugClaim[i]);\n            }\n            audits[_contracthash].reportIndex = audits[_contracthash].reportIndex.add(1);\n            reports[indexReports] = Report({owner: msg.sender,\n                                            link: _link,\n                                            auditid: _contracthash,\n                                            reportid: _reporthash,\n                                            totalrisk: totalrisk,\n                                            bugs: _bugID,\n                                            bugrisk: _bugClaim,\n                                            bugreview: emptyarray,\n                                            bugclosed: emptyarray1,\n                                            reportstatus: 1,\n                                            payout: 0\n                                    });\n            audits[_contracthash].reports.push(indexReports);\n            indexReports = indexReports.add(1);\n            emit ReportSubmit(_contracthash, _reporthash, indexReports, totalrisk, msg.sender);\n            return true;\n    }\n    \n    /**\n     * @dev Auditee can check an audit report and agree/adjust the bug risk in the report \n     *      or claim that the report is not received. If not receiven it will deduct \n     *      reliability points of the auditor.\n     */\n    function VerifyReport(uint256 _reportID, uint256[10] memory _bugClaim, uint256 addition, bool received) public returns (bool success) {\n            address auditor = reports[_reportID].owner;\n            bytes32 _contracthash = reports[_reportID].auditid;\n            require(audits[_contracthash].owner == msg.sender, \"verify report: not the owner of the audit\");\n            require(reports[_reportID].reportstatus == 1, \"verify report: report is not status 1\");\n            reports[_reportID].bugreview = _bugClaim;\n            //for loop to calculate amount \n            uint256 amountAudit;\n            uint256 amountReport;\n            for (uint256 i = 0; i < 10; i++) {\n                require(_bugClaim[i] < 5);\n                if (reports[_reportID].bugrisk[i] != 0 && reports[_reportID].bugclosed[i] != true) {\n                        reports[_reportID].bugclosed[i] == true;\n                        if (reports[_reportID].bugreview[i] != 0) {\n                            uint256 riskReview = reports[_reportID].bugreview[i].sub(1);\n                            amountAudit = amountAudit.add(audits[_contracthash].rewards[riskReview]);\n                        }\n                        uint256 riskReport = reports[_reportID].bugrisk[i].sub(1);\n                        amountReport = amountReport.add(audits[_contracthash].rewards[riskReport]);\n                } \n            }\n            if (addition > 0) {\n                    require(addition < 5);\n                    uint256 index = addition.sub(1);\n                    amountAudit = amountAudit.add(audits[_contracthash].rewards[index]);\n            }\n            uint256 points;\n            if (received == false) {\n                reports[_reportID].reportstatus = 3;\n                points = amountReport.div(10**16);\n                if (reliability_auditor[reports[_reportID].owner] > points) {\n                    totalReliability_auditor = totalReliability_auditor.sub(points);\n                    reliability_auditor[reports[_reportID].owner] = reliability_auditor[reports[_reportID].owner].sub(points);\n                } else {\n                    totalReliability_auditor = totalReliability_auditor.sub(reliability_auditor[reports[_reportID].owner]);\n                    reliability_auditor[reports[_reportID].owner] = 0;\n                }\n            } else {\n                points = amountAudit.div(10**16);\n                reports[_reportID].reportstatus = 2;\n                totalReliability_auditor = totalReliability_auditor.add(points);\n                reliability_auditor[auditor] = reliability_auditor[auditor].add(points);\n                totalReliability_auditee = totalReliability_auditee.add(points);\n                reliability_auditee[msg.sender] = reliability_auditee[msg.sender].add(points);\n                totalRewardAvailable = totalRewardAvailable.sub(amountAudit);\n                totalPendingPayout = totalPendingPayout.add(amountAudit);\n                audits[_contracthash].balance = audits[_contracthash].balance.sub(amountAudit);\n                reports[_reportID].payout = reports[_reportID].payout.add(amountAudit);\n            }\n            emit VerifiedReport(_contracthash, _reportID, amountAudit, points, received);\n            return true;\n    }\n    \n    /**\n     * @dev Auditor can check response from aditee and agree with changes to receive rewards\n     *      or disagree. Disagree will deduct reliability point from the auditee.\n     */\n    function ClaimResponse(uint256 _reportID, bool agreed) public returns (bool success) {\n            bytes32 _contracthash = reports[_reportID].auditid;\n            require(reports[_reportID].reportstatus == 2, \"claim report: report is not status 2\");\n            require(reports[_reportID].owner == msg.sender, \"claim report: msg.sender is not owner of report\");\n            reports[_reportID].reportstatus = 3;\n            audits[_contracthash].validated.push(msg.sender);\n            uint256 amount_nofee = reports[_reportID].payout;\n            //calculate fee and deduct\n            uint256 fee = amount_nofee.div(1000).mul(3);\n            uint256 amount = amount_nofee.sub(fee);\n            if (agreed == true) {\n                totalPendingPayout = totalPendingPayout.sub(amount_nofee);\n                dev.transfer(fee);\n                msg.sender.transfer(amount); \n            } else {\n                uint256 amountAudit;\n                for (uint256 i = 0; i < 10; i++) {\n                    if (reports[_reportID].bugreview[i] != 0) {\n                        uint256 riskReview = reports[_reportID].bugreview[i].sub(1);\n                        amountAudit = amountAudit.add(audits[_contracthash].rewards[riskReview]);\n                    } \n                }\n                uint256 points = amountAudit.div(10**16);\n                if (reliability_auditee[audits[_contracthash].owner] > points) {\n                    totalReliability_auditee = totalReliability_auditee.sub(points);\n                    reliability_auditee[audits[_contracthash].owner] = reliability_auditee[audits[_contracthash].owner].sub(points);\n                } else {\n                    totalReliability_auditee = totalReliability_auditee.sub(reliability_auditee[audits[_contracthash].owner]);\n                    reliability_auditee[audits[_contracthash].owner] = 0;\n                }\n                totalPendingPayout = totalPendingPayout.sub(amount_nofee);\n                dev.transfer(fee);\n                msg.sender.transfer(amount); \n            }\n            emit ClosedReport(_contracthash, _reportID, amount);\n            return true;\n    }\n    \n    /**\n     * @dev Close open audit requests\n     */\n    function CloseAuditRequest(bytes32 _contracthash) public returns (bool success) {\n            require(audits[_contracthash].owner == msg.sender, \"close audit: msg.sender is not owner of audit\");\n            require(audits[_contracthash].closed == false, \"close audit: audit is closed\");\n            //Check pending reports\n            uint256 pending;\n            for (uint256 i = 0; i < audits[_contracthash].reportIndex; i++) {\n                uint256 reportID = audits[_contracthash].reports[i];\n                uint256 reportstatus = reports[reportID].reportstatus;\n                if (reportstatus == 1) {\n                    pending = pending.add(1);\n                }\n            }\n            require(pending == 0, \"close audit: there is an open report\");\n            uint256 amount = audits[_contracthash].balance;\n            uint256 index_total = audit_index[_contracthash];\n            uint256 pendingIndex = total_pending[index_total];\n            uint256 replace = pending_total[indexPending.sub(1)];\n            audits[_contracthash].closed = true;\n            totalRewardAvailable = totalRewardAvailable.sub(audits[_contracthash].balance);\n            audits[_contracthash].balance = 0;\n            //Replace with the last and remove last\n            pending_total[pendingIndex] = replace;\n            total_pending[replace] = pendingIndex;\n            pending_total[indexPending.sub(1)] = 0;\n            total_pending[index_total] = 0;\n            indexPending = indexPending.sub(1);\n            //Transfer remaining balance to owner\n            msg.sender.transfer(amount);\n            emit ClosedAudit(_contracthash, amount);\n            return true;\n    }\n    \n    /**\n     * @dev Auditor can close a report before reaction of the auditor.\n     *      \n     */\n    function CloseReport(uint256 _reportID) public returns (bool success) {\n            require(reports[_reportID].reportstatus == 1, \"close report: report is closed\");\n            require(reports[_reportID].owner == msg.sender, \"close report: not the owner\");\n            reports[_reportID].reportstatus = 3;\n            emit ClosedReport(reports[_reportID].auditid, _reportID, 0);\n            return true;\n    }\n}",
  "sourcePath": "/Users/kevinfoesenek/Desktop/Banq_audit/contracts/BanqAudit.sol",
  "compiler": {
    "name": "solc",
    "version": "0.5.16+commit.9c3226ce.Emscripten.clang"
  },
  "schemaVersion": "3.0.23",
  "updatedAt": "2020-04-08T11:41:10.797Z",
  "devdoc": {
    "details": "banq audit is a decentralized audit platform for opensource (smart contract) audit projects     anyone can submit audit request and anyone can submit a audit report. A successful agree results in     increased loyalty points. A disagree results in loss of loyalty points.",
    "methods": {
      "ClaimResponse(uint256,bool)": {
        "details": "Auditor can check response from aditee and agree with changes to receive rewards     or disagree. Disagree will deduct reliability point from the auditee."
      },
      "CloseAuditRequest(bytes32)": {
        "details": "Close open audit requests"
      },
      "CloseReport(uint256)": {
        "details": "Auditor can close a report before reaction of the auditor.     "
      },
      "RequestAudit(bytes32,string,uint256[4])": {
        "details": "auditee can request an audit using this function and sets reward per bug and bug risk.     contract needs a deposit of multiples of the total reward.      "
      },
      "SubmitReport(bytes32,bytes32,string,uint256[10],uint256[10])": {
        "details": "auditor can submit a report (bug) for a pending audit."
      },
      "VerifyReport(uint256,uint256[10],uint256,bool)": {
        "details": "Auditee can check an audit report and agree/adjust the bug risk in the report      or claim that the report is not received. If not receiven it will deduct      reliability points of the auditor."
      },
      "changeDev(address)": {
        "details": "function for the developer to change the address. "
      },
      "depositAudit(bytes32)": {
        "details": "auditee can deposit additional funds to a pending audit."
      },
      "getAuditData(bytes32)": {
        "details": "functions to get the arrays of the audit and report structs."
      }
    }
  },
  "userdoc": {
    "methods": {}
  }
}