{
  "contractName": "ConvertBytes",
  "abi": [
    {
      "constant": true,
      "inputs": [
        {
          "internalType": "string",
          "name": "source",
          "type": "string"
        }
      ],
      "name": "stringToBytes32",
      "outputs": [
        {
          "internalType": "bytes32",
          "name": "result",
          "type": "bytes32"
        }
      ],
      "payable": false,
      "stateMutability": "pure",
      "type": "function"
    }
  ],
  "bytecode": "0x608060405234801561001057600080fd5b5061014b806100206000396000f3fe608060405234801561001057600080fd5b506004361061002b5760003560e01c8063cfb5192814610030575b600080fd5b6100e96004803603602081101561004657600080fd5b810190808035906020019064010000000081111561006357600080fd5b82018360208201111561007557600080fd5b8035906020019184600183028401116401000000008311171561009757600080fd5b91908080601f016020809104026020016040519081016040528093929190818152602001838380828437600081840152601f19601f8201169050808301925050505050505091929192905050506100ff565b6040518082815260200191505060405180910390f35b60006060829050808051906020012091505091905056fea265627a7a723158200c84e2872eaab677775a18b6a77756496b17df1ae54735674815d010885b53c464736f6c63430005100032",
  "source": "pragma solidity 0.5.16;\n\ncontract ConvertBytes{\n    function stringToBytes32(string memory source) public pure returns (bytes32 result) {\n      \n        bytes memory input = bytes(source);\n        \n        result = keccak256(input);\n    }\n}\n",
  "sourcePath": "/Users/kevinfoesenek/Desktop/Banq_audit/contracts/ConvertBytes.sol",
  "compiler": {
    "name": "solc",
    "version": "0.5.16+commit.9c3226ce.Emscripten.clang"
  },
  "schemaVersion": "3.0.23",
  "updatedAt": "2020-04-08T09:17:17.809Z",
  "devdoc": {
    "methods": {}
  },
  "userdoc": {
    "methods": {}
  }
}